:020000040800F2
:100000007814002095020008F1020008F1020008AF
:10001000F1020008F1020008F102000800000000EF
:10002000000000000000000000000000F1020008D5
:10003000F102000800000000F10200082507000896
:10004000F1020008F1020008F1020008F1020008C4
:10005000F1020008F1020008F1020008F1020008B4
:10006000F1020008F1020008F1020008F1020008A4
:10007000F1020008F1020008F1020008F102000894
:10008000F1020008F1020008F1020008F102000884
:10009000F1020008F1020008F1020008F102000874
:1000A000F1020008F1020008F1020008F102000864
:1000B000F1020008F1020008F1020008F102000854
:1000C000F1020008F1020008F1020008F102000844
:1000D000F1020008F1020008F1020008F102000834
:1000E000F1020008F1020008F1020008F102000824
:1000F000F1020008F1020008F1020008F102000814
:10010000F1020008F1020008F1020008F102000803
:10011000F1020008F1020008F1020008F1020008F3
:10012000F1020008F1020008F1020008F1020008E3
:10013000F1020008F1020008F1020008F1020008D3
:10014000F1020008F1020008F1020008F1020008C3
:10015000F1020008F1020008F1020008F1020008B3
:10016000F1020008F1020008F1020008F1020008A3
:10017000F1020008F1020008F1020008F102000893
:10018000F1020008F102000810B5054C237833B9DC
:10019000044B13B10448AFF300800123237010BD5A
:1001A0005004002000000000B0180008084B10B5F3
:1001B0001BB108490848AFF300800848036803B939
:1001C00010BD074B002BFBD0BDE81040184700BF07
:1001D0000000000054040020B01800084C04002067
:1001E0000000000080B582B000AF7860786800F051
:1001F0002BF8786800F034F800BF0837BD4680BDA2
:1002000080B582B000AF78600B46FB70FB789BB284
:100210001946034800F036F900BF0837BD4680BDD7
:100220000008024080B582B000AF78600B46FB70DA
:10023000FB789BB21946034800F032F900BF08373B
:10024000BD4680BD0008024080B582B000AF786036
:100250000121042000F06AF800BF0837BD4680BDC8
:1002600080B584B000AF786001233B730123FB733A
:100270000023BB730723BB6000237B7307F10803D4
:100280001946034800F070F800BF1037BD4680BD26
:100290000008024080B582B000AF104B7B60104B6D
:1002A0003B6007E03B681A1D3A607A68111D79606F
:1002B00012681A603B680B4A9342F3D30A480B4911
:1002C0004FF000028842B8BF40F8042BFADB00F080
:1002D00013F800BF0837BD4680BD00BFA019000855
:1002E000000000205004002050040020740400206E
:1002F00080B400AFFEE700BF80B500AF00F0DEF8CD
:1003000000F0D4F90848FFF76DFF07210648FFF712
:1003100077FF642000F0EAF907210348FFF782FF26
:10032000C82000F0E3F9F0E76C04002080B483B04B
:1003300000AF78600B46FB70FB78002B06D00949B4
:10034000084B1A6B7B6813430B6306E00549054BAA
:100350001A6B7B68DB4313400B6300BF0C37BD4651
:1003600080BC70470038024080B487B000AF78602E
:10037000396000237B6100233B610023FB60002385
:100380007B6176E001227B6902FA03F33B613B6803
:100390001A683B691340FB60FA683B699A4265D171
:1003A0007B681A687B695B00032101FA03F3DB4376
:1003B0001A407B681A607B681A683B681B7919468B
:1003C0007B695B0001FA03F31A437B681A603B68A0
:1003D0001B79012B03D03B681B79022B2ED17B6844
:1003E0009A687B695B00032101FA03F3DB431A403F
:1003F0007B689A607B689A683B685B7919467B6981
:100400005B0001FA03F31A437B689A607B685A68C1
:100410007B699BB2012101FA03F3DB431A407B683D
:100420005A607B685A683B689B7919467B699BB226
:1004300001FA03F39BB21A437B685A607B68DA685F
:100440007B699BB25B00032101FA03F3DB431A4093
:100450007B68DA607B68DA683B68DB7919467B6920
:100460005B0001FA03F31A437B68DA607B690133AE
:100470007B617B690F2B85D900BF1C37BD4680BCD3
:10048000704700BF80B483B000AF78600B467B80BC
:100490007B687A881A8300BF0C37BD4680BC7047E2
:1004A00080B483B000AF78600B467B807B687A882D
:1004B0005A8300BF0C37BD4680BC704780B500AF83
:1004C000124A124B1B6843F0010313600F4B0022CA
:1004D0009A600E4A0D4B1B6823F0847323F480331B
:1004E00013600A4B0A4A5A60084A084B1B6823F4F7
:1004F00080231360054B0022DA6000F00DF8054BF5
:100500004FF000629A6000BF80BD00BF003802401B
:100510001030002400ED00E080B483B000AF002371
:100520007B6000233B60354A344B1B6843F48033C7
:100530001360324B1B6803F400333B607B6801336C
:100540007B603B68002B03D17B68B3F5A06FF0D1D3
:100550002A4B1B6803F40033002B02D001233B60BD
:1005600001E000233B603B68012B42D1234A234B2F
:100570001B6C43F080531364214A214B1B6843F4E6
:10058000804313601D4A1D4B9B6893601B4A1B4BA5
:100590009B6843F400439360184A184B9B6843F4EC
:1005A000A0539360154B174A5A60144A134B1B68AB
:1005B00043F08073136000BF104B1B6803F000739F
:1005C000002BF9D0104B40F205621A600B4A0B4B1E
:1005D0009B6823F003039360084A084B9B6843F031
:1005E0000203936000BF054B9B6803F00C03082BCC
:1005F000F9D100BF0C37BD4680BC704700380240BF
:100600000070004008544007003C024080B400AF36
:10061000FEE700BF80B483B000AF03463960FB71D2
:1006200097F90730002B0BDA0D49FB7903F00F0324
:10063000043B3A68D2B21201D2B20B441A7609E0F6
:10064000084997F907303A68D2B21201D2B20B4486
:1006500083F8002300BF0C37BD4680BC704700BF45
:1006600000ED00E000E100E080B582B000AF78600E
:100670007B68B3F1807F01D3012311E00A4A7B68D4
:1006800023F07F43013B53600F214FF0FF30FFF712
:10069000C1FF054B00229A60034B07221A6000231A
:1006A00018460837BD4680BD10E000E080B500AFB9
:1006B000064B1B68064AA2FB03239B091846FFF75B
:1006C000D3FF044B00221A6000BF80BD0000002051
:1006D000D34D62107004002080B400AF024B1B6841
:1006E0001846BD4680BC70477004002080B584B0B9
:1006F00000AF7860FFF7F0FF02467B681344FB60B1
:10070000FFF7EAFF0246FB689A4234BF0123002349
:10071000DBB2002B01D000BFF2E700BF1037BD46AF
:1007200080BD00BF80B400AF044B1B680133034A97
:10073000136000BFBD4680BC704700BF700400203E
:1007400003685A004CBF43F0004323F000431844B1
:10075000704700BF61B32DE9F84F01F1FF3A9046B1
:100760000646D146002707EB090404EBD474641055
:10077000E50071190846FFF7E3FFA245834605F13E
:100780000800304409D0FFF7DBFFC34500F1FF301C
:1007900005D8404509D2671CE5E7C34505D9A742FE
:1007A00002D004F1FF39DEE700210846BDE8F88FEA
:1007B00008467047012807D0022807D0044B0028BC
:1007C0000CBF184600207047024870470248704727
:1007D000C10E0008C50E0008C90E000830B5244B34
:1007E00083B004468D1E7BB301A92846AFF3008079
:1007F00020B301992A46FFF7ADFF0146F0B1FFF79C
:100800009FFF4B68A064012B12D0002B01F1040064
:1008100020DBFFF795FF0023E06423650368002BCE
:100820001CDBFFF78DFF00232061184603B030BDAD
:10083000002323610523184603B030BD0023236144
:100840000923184603B030BD0A490B48091AC910DC
:100850000191CFE70123E0642365DFE7C3F3036081
:10086000FFF7A8FF0028206114BF00230923DCE75D
:1008700000000000A0190008B01800080368DA079B
:1008800010B5044606D49B0700F1480009D500F0D6
:1008900059FC2368590709D51A070ED5DB0613D56D
:1008A00010BD00F047FC23685907F5D404F1D000CF
:1008B00000F050FC23681A07F0D404F5A87000F08B
:1008C00051FC2368DB06EBD404F5E870BDE810406A
:1008D00000F08CBC03680BB1184470471846704791
:1008E00009207047704700BF70B504460D4608E008
:1008F0002B6C63612A46236921460120984708280A
:1009000008D1296C2046FFF769FF06460028EFD082
:10091000FFF77CFE0728FBD13046296CFFF7E2FF8A
:10092000281D00F0FBFB00BF2DE9F0470C1D06461B
:1009300017460FCCADF5727D03AD0FC50FCC0FC5BB
:100940000FCC0FC594E80F0002ACD6F80C80D6F897
:10095000189085E80F0000233046216C2360FFF7D4
:100960003DFF002F054614BF0A2709277DB1A36B61
:1009700047F010018DE810023246636401203346CF
:10098000C04778BB28460DF5727DBDE8F087236C23
:1009900073614FF4F07221467AA800F03FFE33698C
:1009A0007AAA314638469847889B82468DE81002DD
:1009B00039466364324633460120C04790B94FF44C
:1009C000F0727AA9204600F029FEBAF1080F06D18C
:1009D000216C3046FFF702FF09270546C6E7BAF14A
:1009E000070F04D009200DF5727DBDE8F087284679
:1009F000216CFFF777FF03A800F090FB406C704775
:100A0000F0B5CB6B0B640E1D0F4604460FCEF9B04C
:100A100001AD0FC50FCE0FC50FCE0FC596E80F0065
:100A20004FF0FF3685E80F00009606E023696A461E
:100A3000214698470828054608D110992046FFF717
:100A4000CDFE0028F2D0092079B0F0BD6846FFF74E
:100A500015FF062DF7D139462046FFF745FF00BFA9
:100A600030B4DD6BC160826119461D64002230BC68
:100A70005AE700BF70B5C66843690B6426B101220E
:100A8000FFF752FFFFF7C2FD03690A4604460D4611
:100A9000014602209847072807D0082803D1294695
:100AA0002046FFF721FFFFF7B1FD3046296CFFF725
:100AB00019FF281D00F032FBC2681AB1CA6B0A6424
:100AC000002231E79CE700BF704700BF836813B185
:100AD000014601201847704700B5042907D8DFE810
:100AE00001F00309060909000BB90F2A05D90220F4
:100AF0005DF804FB01205DF804FB00EB8202184660
:100B00005368019A13605DF804FB00BF10B584B010
:100B1000002303AC0A4600941946FFF7DDFF039853
:100B200004B010BD00B5042907D8DFE801F00309BF
:100B3000060909000BB90F2A05D902205DF804FB4C
:100B400001205DF804FB019900EB82020968516005
:100B500018465DF804FB00BF10B584B004AC002358
:100B600044F8042D0A4600941946FFF7DBFF04B051
:100B700010BD00BFF0B5D36B1364151D07460E46BC
:100B80000FCDADF50F7D17AC0FC40FCD0FC40FCD3A
:100B90000FC495E80F004FF0FF3584E80F0016955D
:100BA00010E016A8FFF7D8FF314616A8B84716AAD6
:100BB000694678B9049B08209847052804460AD05E
:100BC000092807D026996846FFF708FE6A460C21D7
:100BD0000028E6D0092416A8FFF750FE20460DF5A0
:100BE0000F7DF0BD2DE9F04F0D46C96C8BB00C1D8B
:100BF000096807919146089400F0030B1E46002BEC
:100C000064D10902032307918DF825608DF8243003
:100C10002B6DBBF1020F08BFAC6B13F0010343D186
:100C200000F00800C2B2039201932768002F3DD064
:100C3000022E47D02788B4F802800434AB6C28F029
:100C4000010A0F2148469A44FFF760FF824537D8D2
:100C500027F001039A4450452CBF002001204FEAA1
:100C6000480808F0020807F0010748EA0708B8F149
:100C7000010F41D038D3B8F1020F1DD1236823F002
:100C800000420292BBF1000F79D130B103990029E3
:100C900000F08180002A00F0A880002B79DB029B05
:100CA000013304EB8304C0E700230193022E40DDEF
:100CB000FFF716FE002842D009200BB0BDE8F08FE8
:100CC0000020CCE7D4F804800834B7E7022B9FDC7F
:100CD0000B0CDAB209048DF82530022304EB8204F0
:100CE00007918DF8243093E7BBF1000F02D0002864
:100CF00040F0B080043498E7BBF1000F26D1B0B1CA
:100D000094E80C00991C4FEAD272D5D005F1580135
:100D10000133069100F09480201DFFF7DBFD06AB48
:100D200001462846AFF30080002840F0B880083420
:100D30007BE707A9484600F0F3FA0028BCD1019BE5
:100D4000002B5CD108200BB0BDE8F08F0D21484688
:100D50002F6AFFF7DBFE8742E9D1AB6A9C42E6D1FE
:100D60002046FFF7EDFC0F2102464846FFF7F4FE50
:100D700048462A460021FFF7EFFE07209DE70D2198
:100D800048462F6AFFF7C2FE874248D02368002BEF
:100D900085DA043483E7029B3BB305F15803271D32
:100DA000CDF810B0DDF80C80DDF808A00596A3465C
:100DB0001C4602E0B245B04616D038460694FFF70E
:100DC00089FD06AB014600222846AFF3008008F1FA
:100DD000010604370028EDD0029B059E43455C4682
:100DE000DDF810B0D2D100E05C4648460D21FFF797
:100DF0008DFE069B2862AC626B6206205DE70F21C8
:100E00004846FFF783FE0E2102464846FFF7A4FE40
:100E100048462A4A0F21FFF79FFE07204DE7AB6A9D
:100E20009C42B3D104220027A3180299A962EF6261
:100E30002A636B632368BB421FDB012301932EE708
:100E400048460D21FFF762FE2862069B6B62AC628A
:100E5000062032E72046FFF773FC04340646AC63F5
:100E60002846AFF3008000283FF426AF48463246BC
:100E70000F21FFF771FE07201FE70846013004EB42
:100E80008000FFF75DFC0F2102464846FFF764FE35
:100E900048462A463946FFF75FFE07200DE707461A
:100EA0000D214846FFF732FE022F2862CDD12B4696
:100EB000069A43F82C2F6B62C9E700BF00000000C0
:100EC00000238FE601238DE602238BE6F0B504466E
:100ED000C5B004290DD8DFE801F057030C310F002D
:100EE000012B4FEA124695B266D17219102A40F2D0
:100EF0009F80022045B0F0BD002BFAD1102AF8D80F
:100F00002368D80600F1C98022AE3046019200F075
:100F100077F9A06B019A0023012505FA03F111422C
:100F200003D0016846F8231004300133042BF4D1B8
:100F3000A063304600F05AF90020DBE7032BD8D13C
:100F4000150C97B2EB19102BD3D823681E0700F1AC
:100F5000B88022AE30467F0000F026F906EBC502CD
:100F60007B1EA56B57B1043A294651F8040B42F891
:100F7000040F013B581CF8D105EB87053046A563EB
:100F800000F0F0F80020B5E7002BB2D1A56B97B2C6
:100F9000201D012606FA03F1394203F1010302D0B4
:100FA000296801600435102B00F10400F2D112F41D
:100FB00000503BD1A5639DE7052B9AD17719202FCF
:100FC00097D80F2E65D92F46002D48D12A460027E5
:100FD000002AA06B71DD00EBC202014644A800EBC1
:100FE000C6008C3851F8045B40F8045F9142F9D197
:100FF000084697B1102E324644A938BF102201EBA3
:10100000C202A2F5C4727900043A00EB810150F8E3
:10101000045B42F8045F8142F9D1012B47D00F2EC7
:10102000A16332D917B102A800F094F8002061E75B
:101030000F2E3FF65EAF00272268D1070DD522F0B4
:101040000101052B21600193204652D022F00302BA
:1010500040F8482B00F072F8019B002F51D0226815
:10106000510736D4012B3ED00F2E06D822A801936B
:1010700000F06CF8019B002FA8D002A8019300F0AB
:101080006DF8019BC6F11002A2E722A800F05AF801
:10109000C8E7102FCFD9103FCEE723F0100323600D
:1010A00004F5E870019200F0ABF8019A2CE70431E6
:1010B000A16322A800F03EF8B8E7002F9AD10146BC
:1010C000ABE723F00803236004F5A87000F06CF888
:1010D0003FE7204622F0040240F8D02B019300F0B5
:1010E0003DF8019BBEE722A8019300F027F8019B81
:1010F000C8E741F0020140F8481B00F027F8019BC7
:10110000ABE7012B03D00F2E3FF660AFAEE722A86E
:10111000019300F013F8019B58E700BF00F1340180
:1011200091E838009C46A6464CF8045D90E8FF0F15
:10113000E54600BD90EC210B704700BF80EC210B11
:10114000704700BF90EC200B704700BF80EC200B75
:10115000704700BFD0EC200B704700BFC0EC200BE5
:10116000704700BFF0EC0201F0EC0211F0EC02213C
:10117000F0EC0231F0EC0241F0EC0251F0EC0261D3
:10118000F0EC0271F0EC0281F0EC0291F0EC02A1C3
:10119000F0EC02B1F0EC02C1F0EC02D1F0EC02E1B3
:1011A000F0EC02F1704700BFE0EC0201E0EC02114C
:1011B000E0EC0221E0EC0231E0EC0241E0EC025113
:1011C000E0EC0261E0EC0271E0EC0281E0EC029103
:1011D000E0EC02A1E0EC02B1E0EC02C1E0EC02D1F3
:1011E000E0EC02E1E0EC02F1704700BFB0FC0181ED
:1011F000B0FC0191B0FC01A1B0FC01B1704700BF8F
:10120000A0FC0181A0FC0191A0FC01A1A0FC01B106
:10121000704700BFEC4600B52DE900502DE9FF1FD7
:101220004FF000032DE90C0001A9FFF7E9FBDDF801
:1012300040E012B0704700BFEC4600B52DE9005009
:101240002DE9FF1F4FF000032DE90C0001A9FFF766
:1012500011FCDDF840E012B0704700BFEC4600B56D
:101260002DE900502DE9FF1F4FF000032DE90C0080
:1012700001A9FFF721FCDDF840E012B0704700BF84
:10128000EC4600B52DE900502DE9FF1F4FF000039B
:101290002DE90C0001ABFFF7E3FBDDF840E012B0F5
:1012A000704700BFEC4600B52DE900502DE9FF1F47
:1012B0004FF000032DE90C0001AAFFF75BFCDDF8FD
:1012C00040E012B0704700BF037A1BB9437A43B9BC
:1012D000B02070475A1E036802721A020260180E8C
:1012E00070474268013B10B4437213680321141D18
:1012F00001721A024460026010BC180E704700BFF1
:1013000000B585B003AA0023009219460C22FFF70E
:10131000E3FB039805B05DF804FB00BFF0E700BFF6
:101320002DE9F043064685B00D464FF000082846EB
:10133000FFF7CAFFB028044600F0B48020F07F0316
:1013400013F0FF0320D000F0F003802B7AD0902B15
:1013500035D0A02B48D0B02B5CD0C02B00F08980BA
:1013600000F0F803D02B0BD100F00702013242F459
:101370000022052301213046FFF7A8FD0028D6D022
:10138000092005B0BDE8F0830DF10C09194687006E
:10139000CDF800900D223046FFF79EFBFFB2039B75
:1013A000CDF80090043760064CBFDF1BFF18002308
:1013B00019460D2230460397FFF7B4FBB7E700F05C
:1013C0000D030D2BDCD003AF002300F00F021946F4
:1013D00000973046FFF780FB0023009719460D2247
:1013E0003046FFF79FFBA2E7C2434FF47F6302F052
:1013F000070243FA02F2010702EA03024FF0000378
:1014000048BF42F4804219463046FFF75FFD00288E
:10141000B6D18CE7B1284AD0B22853D0B32800F017
:10142000818000F0FC03B42BAAD000F00702013247
:10143000012342F4002219463046FFF747FD0028F9
:101440009ED174E72846FFF73FFF24022043B0F502
:10145000004F95D004010023A2B219463046FFF791
:1014600035FD00288CD114F4004F18BF4FF001084F
:101470005DE7C62862D0C7286CD000F0F803C02B07
:101480007BD0C82800F09180C9287FF479AF284626
:10149000FFF71AFF020300F00F0002F47022013080
:1014A000024366E7B8F1000F6ED0002069E72846D6
:1014B000FFF70AFF024600283FF462AF10F0F00386
:1014C000B9D05DE700230DF10C090D221946CDF8C6
:1014D00000903046FFF700FB2846FFF7F5FE0206B6
:1014E0004FF002040CD5039B00F07F00A0400344A2
:1014F00028460393FFF7E8FE030604F10704F2D43D
:10150000039BCDF8009000F07F0000FA04F203F591
:1015100001740023144419460D2230460394FFF74A
:1015200001FB04E72846FFF7CFFE010300F00F00A0
:1015300001F47021421C01230A437CE72846FFF78F
:10154000C3FE010300F00F0001F47021421C0323CD
:101550000A4370E72846FFF7B7FE024600283FF42B
:101560000FAF10F0F0037FF40BAF04213046FFF70C
:10157000ADFC00287FF404AFD9E600F00F02013281
:10158000032342F4202256E703AC43460E22414691
:1015900000943046FFF7A0FA0094304643460F22ED
:1015A0004146FFF7BFFA4046EBE62846FFF78CFEC0
:1015B00000F0F00200F00F031032013343EA023270
:1015C000D7E600BF10B5C36C84B05A6803208DF80D
:1015D0000C00DC798DF80D4012020833084601A991
:1015E00001920293FFF79CFE04B010BD08B5FFF70F
:1015F00095FE806C08BD00BF08B5FFF78FFEC36C79
:10160000D87903EB8000083008BD00BF08B5FEF7AD
:10161000FDFF00BF08B5FFF7F9FF00BF844641EAB0
:10162000000313F003036DD1403A41D351F8043B5A
:1016300040F8043B51F8043B40F8043B51F8043BAC
:1016400040F8043B51F8043B40F8043B51F8043B9C
:1016500040F8043B51F8043B40F8043B51F8043B8C
:1016600040F8043B51F8043B40F8043B51F8043B7C
:1016700040F8043B51F8043B40F8043B51F8043B6C
:1016800040F8043B51F8043B40F8043B51F8043B5C
:1016900040F8043B51F8043B40F8043B51F8043B4C
:1016A00040F8043B51F8043B40F8043B403ABDD2BB
:1016B000303211D351F8043B40F8043B51F8043B5D
:1016C00040F8043B51F8043B40F8043B51F8043B1C
:1016D00040F8043B103AEDD20C3205D351F8043BEC
:1016E00040F8043B043AF9D2043208D0D2071CBFB8
:1016F00011F8013B00F8013B01D30B8803806046E1
:10170000704700BF082A13D38B078DD010F0030356
:101710008AD0C3F10403D21ADB071CBF11F8013BC6
:1017200000F8013B80D331F8023B20F8023B7BE715
:10173000043AD9D3013A11F8013B00F8013BF9D240
:101740000B7803704B7843708B78837060467047DA
:10175000024B13B1024800F005B8704700000000CA
:1017600071170008002301461A46184600F014B805
:1017700038B5074D074C2C1BA41005D0013C55F87B
:10178000043D9847002CF9D1BDE8384000F05CB822
:101790004C040020480400202DE9F047254C256822
:1017A000D5F848410646884692469946C4B36068D3
:1017B0001F2817DC431C76B104EB80050122C5F815
:1017C00088A0D4F8881182401143022EC4F88811F1
:1017D000C5F808911ED00230636044F820800020D4
:1017E000BDE8F087144B03B34FF4C870AFF300802B
:1017F0000446D0B1D5F84831002780E88800C5F804
:10180000484138460123C4F88871C4F88C71002E11
:10181000E1D0D1E7D4F88C110A43C4F88C21DAE77F
:1018200005F5A674C5F84841C1E74FF0FF30BDE8A3
:10183000F08700BF5818000800000000F8B500BF8E
:10184000F8BC08BC9E467047F8B500BFF8BC08BCA1
:0C1850009E467047430000001800002076
:10185C0001970181B0B0088400000000019701815C
:10186C00B0B008840000000001970181B0B008847A
:10187C000000000001970181B0B008840000000056
:10188C0003970181B0B008840000000008B1018109
:10189C00B0B000840000000008B10181B0B0008439
:0418AC000000000038
:1018B00034E9FF7FA8FFFF7F48E9FF7FACFFFF7F90
:1018C00064E9FF7FB0FFFF7F80E9FF7FB4FFFF7F08
:1018D00090E9FF7FB8FFFF7FBCE9FF7F01000000B8
:1018E00018EAFF7F0884978044EAFF7F0100000028
:1018F000ECEEFF7FB0A9028084EFFF7FB0B0A8803C
:10190000D4EFFF7F01000000E0EFFF7FB0B0AA80BE
:1019100018F0FF7FAE71B280E4F0FF7F010000009D
:10192000E0F0FF7FAB3F388038F1FF7F010000001F
:1019300044F1FF7FB0B0AA8080F1FF7F010000007A
:1019400034F2FF7FAB0EB2809CF2FF7FB0AF0A8013
:1019500070F5FF7F0100000074F5FF7FAB3F04804E
:10196000BCF7FF7F0100000098F9FF7F008404802E
:10197000ACF9FF7F01000000A8F9FF7FB0AD048043
:1019800044FCFF7FB0A8038064FCFF7F0CFFFF7F57
:1019900068FCFF7F10FFFF7F74FCFF7F01000000E9
:1019A000007A030A000000000000000001020304A6
:1019B00006070809000000000000000004030020E2
:1019C0006C030020D4030020000000000000000091
:1019D0000000000000000000000000000000000007
:1019E0000000000000000000000000005418000883
:1019F00000000000000000000000000000000000E7
:101A000000000000000000000000000000000000D6
:101A100000000000000000000000000000000000C6
:101A200000000000000000000000000000000000B6
:101A300000000000000000000000000000000000A6
:101A40000000000000000000000000000000000096
:101A50000000000000000000000000000000000086
:101A600001000000000000000E33CDAB34126DE623
:101A7000ECDE05000B00000000000000000000008C
:101A80000000000000000000000000000000000056
:101A90000000000000000000000000000000000046
:101AA0000000000000000000000000000000000036
:101AB0000000000000000000000000000000000026
:101DE00051170008AD01000889010008000000003B
:0400000508000000EF
:00000001FF
