:020000040800F2
:10000000781400203502000831020008310200088F
:10001000310200083102000831020008000000002F
:100020000000000000000000000000003102000895
:10003000310200080000000031020008CD04000871
:1000400031020008310200083102000831020008C4
:1000500031020008310200083102000831020008B4
:1000600031020008310200083102000831020008A4
:100070003102000831020008310200083102000894
:100080003102000831020008310200083102000884
:100090003102000831020008310200083102000874
:1000A0003102000831020008310200083102000864
:1000B0003102000831020008310200083102000854
:1000C0003102000831020008310200083102000844
:1000D0003102000831020008310200083102000834
:1000E0003102000831020008310200083102000824
:1000F0003102000831020008310200083102000814
:100100003102000831020008310200083102000803
:1001100031020008310200083102000831020008F3
:1001200031020008310200083102000831020008E3
:1001300031020008310200083102000831020008D3
:1001400031020008310200083102000831020008C3
:1001500031020008310200083102000831020008B3
:1001600031020008310200083102000831020008A3
:100170003102000831020008310200083102000893
:10018000310200083102000810B5054C237833B95C
:10019000044B13B10448AFF300800123237010BD5A
:1001A00050040020000000001C160008084B10B589
:1001B0001BB108490848AFF300800848036803B939
:1001C00010BD074B002BFBD0BDE81040184700BF07
:1001D00000000000540400201C1600084C040020FD
:1001E0000000000010B5012182B0042000F060F88A
:1001F000072401220023694606488DF804208DF863
:1002000007208DF806308DF80530009400F05EF878
:1002100002B010BD00080240014800F0A9B800BFBC
:1002200000080240014800F0A5B800BF00080240E5
:10023000FEE700BF08B50C480C4B984207D2C243FA
:100240001A4422F003020432094901F0B5F80948C2
:1002500009494FF000028842B8BF40F8042BFADB8E
:10026000BDE8084000F00AB800000020500400205B
:10027000EC160008500400207404002008B500F0BB
:100280007BF800F0F5F80948FFF7ACFF07210748B5
:10029000FFF7C2FF642000F00BF907210348FFF7C6
:1002A000C1FFC82000F004F9F0E700BF6C04002093
:1002B00029B9054A136B23EA000010637047024B0B
:1002C0001A6B1043186370470038024000222DE972
:1002D000F0471346D1F800E001274FF0030C04E08B
:1002E0000133102B02F1020229D007FA03F434EA99
:1002F0000E05F5D1D0F800800E790CFA02F5ED4329
:1003000008EA0508C0F80080D0F8009006FA02FA62
:10031000013E4AEA0909012E0CFA02F8C0F80090E1
:100320000FD9C568CC7925EA0805C560C568944031
:1003300001332C43102BC46002F10202D5D1BDE879
:10034000F087866891F805903540856086688D79DC
:1003500009FA02F949EA06068660466826EA0404B4
:100360004460466805FA03F4A4B234434460D8E715
:100370000183704741837047364B37481A68002124
:1003800042F001021A6099601A6822F0847222F425
:1003900080321A6058601A6882B022F480221A6093
:1003A000D960009101911A6842F480321A601A46AD
:1003B00003E0009BB3F5A06F09D0136803F400338A
:1003C0000193009B01330093019B002BF1D0214B43
:1003D0001B6813F4003318BF01230193019B012B09
:1003E00005D01E4B4FF000629A6002B07047194B67
:1003F0001B491A6C1B4842F080521A640A6842F486
:1004000080420A609A689A609A6842F400429A6050
:100410009A6842F4A0529A6058601A6842F080725A
:100420001A601A4611680B4B8901FBD50E4A40F23F
:10043000056111609A6822F003029A609A6842F09E
:1004400002029A601A46936803F00C03082BFAD153
:10045000C7E700BF003802401030002400ED00E084
:100460000070004008544007003C0240FEE700BF17
:100470000A4B0B491B680B4A0B4870B4A1FB0313D2
:100480000A4D9B09F026013B5360002185F823604B
:10049000072491601460016070BC70471000002058
:1004A000D34D621010E000E07004002000ED00E089
:1004B000054A136811681844884203D900BF1368BD
:1004C0008342FBD3704700BF70040020024A1368C8
:1004D00001331360704700BF7004002003685A00A6
:1004E0004CBF43F0004323F000431844704700BF63
:1004F00061B32DE9F84F01F1FF3A90460646D14627
:10050000002707EB090404EBD4746410E5007119AB
:100510000846FFF7E3FFA245834605F10800304493
:1005200009D0FFF7DBFFC34500F1FF3005D8404598
:1005300009D2671CE5E7C34505D9A74202D004F1FB
:10054000FF39DEE700210846BDE8F88F084670470E
:10055000012807D0022807D0044B00280CBF1846FA
:100560000020704702487047024870475D0C000841
:10057000610C0008650C000830B5244B83B00446BC
:100580008D1E7BB301A92846AFF3008020B30199EB
:100590002A46FFF7ADFF0146F0B1FFF79FFF4B681A
:1005A000A064012B12D0002B01F1040020DBFFF727
:1005B00095FF0023E06423650368002B1CDBFFF735
:1005C0008DFF00232061184603B030BD0023236156
:1005D0000523184603B030BD0023236109231846C4
:1005E00003B030BD0A490B48091AC9100191CFE781
:1005F0000123E0642365DFE7C3F30360FFF7A8FF8F
:100600000028206114BF00230923DCE7000000005C
:10061000EC1600081C1600080368DA0710B504463B
:1006200006D49B0700F1480009D500F059FC236867
:10063000590709D51A070ED5DB0613D510BD00F0F2
:1006400047FC23685907F5D404F1D00000F050FCB2
:1006500023681A07F0D404F5A87000F051FC236851
:10066000DB06EBD404F5E870BDE8104000F08CBC6C
:1006700003680BB11844704718467047092070474B
:10068000704700BF70B504460D4608E02B6C6361EF
:100690002A462369214601209847082808D1296C59
:1006A0002046FFF769FF06460028EFD0FFF7DEFE81
:1006B0000728FBD13046296CFFF7E2FF281D00F028
:1006C000FBFB00BF2DE9F0470C1D064617460FCC7B
:1006D000ADF5727D03AD0FC50FCC0FC50FCC0FC5A7
:1006E00094E80F0002ACD6F80C80D6F8189085E894
:1006F0000F0000233046216C2360FFF73DFF002FE1
:10070000054614BF0A2709277DB1A36B47F01001E6
:100710008DE810023246636401203346C04778BB3F
:1007200028460DF5727DBDE8F087236C73614FF4A8
:10073000F07221467AA800F03FFE33697AAA31466A
:1007400038469847889B82468DE810023946636494
:10075000324633460120C04790B94FF4F0727AA96F
:10076000204600F029FEBAF1080F06D1216C304670
:10077000FFF702FF09270546C6E7BAF1070F04D0C5
:1007800009200DF5727DBDE8F0872846216CFFF742
:1007900077FF03A800F090FB406C7047F0B5CB6B7F
:1007A0000B640E1D0F4604460FCEF9B001AD0FC508
:1007B0000FCE0FC50FCE0FC596E80F004FF0FF36D6
:1007C00085E80F00009606E023696A4621469847AF
:1007D0000828054608D110992046FFF7CDFE0028CD
:1007E000F2D0092079B0F0BD6846FFF715FF062D5D
:1007F000F7D139462046FFF745FF00BF30B4DD6B27
:10080000C160826119461D64002230BC5AE700BFF6
:1008100070B5C66843690B6426B10122FFF752FF29
:10082000FFF724FE03690A4604460D4601460220EE
:100830009847072807D0082803D129462046FFF704
:1008400021FFFFF713FE3046296CFFF719FF281D23
:1008500000F032FBC2681AB1CA6B0A64002231E7A9
:100860009CE700BF704700BF836813B101460120B9
:100870001847704700B5042907D8DFE801F00309DD
:10088000060909000BB90F2A05D902205DF804FBFF
:1008900001205DF804FB00EB820218465368019AC0
:1008A00013605DF804FB00BF10B584B0002303ACF7
:1008B0000A4600941946FFF7DDFF039804B010BD07
:1008C00000B5042907D8DFE801F00309060909008B
:1008D0000BB90F2A05D902205DF804FB01205DF851
:1008E00004FB019900EB82020968516018465DF82B
:1008F00004FB00BF10B584B004AC002344F8042D01
:100900000A4600941946FFF7DBFF04B010BD00BF94
:10091000F0B5D36B1364151D07460E460FCDADF52C
:100920000F7D17AC0FC40FCD0FC40FCD0FC495E8CA
:100930000F004FF0FF3584E80F00169510E016A861
:10094000FFF7D8FF314616A8B84716AA694678B906
:10095000049B08209847052804460AD0092807D098
:1009600026996846FFF708FE6A460C210028E6D063
:10097000092416A8FFF750FE20460DF50F7DF0BDA7
:100980002DE9F04F0D46C96C8BB00C1D096807911D
:100990009146089400F0030B1E46002B64D1090217
:1009A000032307918DF825608DF824302B6DBBF162
:1009B000020F08BFAC6B13F0010343D100F0080035
:1009C000C2B2039201932768002F3DD0022E47D078
:1009D0002788B4F802800434AB6C28F0010A0F2198
:1009E00048469A44FFF760FF824537D827F0010355
:1009F0009A4450452CBF002001204FEA480808F0D7
:100A0000020807F0010748EA0708B8F1010F41D0D2
:100A100038D3B8F1020F1DD1236823F000420292AF
:100A2000BBF1000F79D130B10399002900F081802A
:100A3000002A00F0A880002B79DB029B013304EB35
:100A40008304C0E700230193022E40DDFFF716FE6A
:100A5000002842D009200BB0BDE8F08F0020CCE781
:100A6000D4F804800834B7E7022B9FDC0B0CDAB211
:100A700009048DF82530022304EB820407918DF8D8
:100A8000243093E7BBF1000F02D0002840F0B08083
:100A9000043498E7BBF1000F26D1B0B194E80C0004
:100AA000991C4FEAD272D5D005F158010133069155
:100AB00000F09480201DFFF7DBFD06AB01462846C1
:100AC000AFF30080002840F0B88008347BE707A926
:100AD000484600F0F3FA0028BCD1019B002B5CD102
:100AE00008200BB0BDE8F08F0D2148462F6AFFF7B4
:100AF000DBFE8742E9D1AB6A9C42E6D12046FFF794
:100B0000EDFC0F2102464846FFF7F4FE48462A4610
:100B10000021FFF7EFFE07209DE70D2148462F6AD1
:100B2000FFF7C2FE874248D02368002B85DA0434E1
:100B300083E7029B3BB305F15803271DCDF810B0A6
:100B4000DDF80C80DDF808A00596A3461C4602E0FF
:100B5000B245B04616D038460694FFF789FD06AB7D
:100B6000014600222846AFF3008008F10106043751
:100B70000028EDD0029B059E43455C46DDF810B091
:100B8000D2D100E05C4648460D21FFF78DFE069B62
:100B90002862AC626B6206205DE70F214846FFF7D2
:100BA00083FE0E2102464846FFF7A4FE48462A4A25
:100BB0000F21FFF79FFE07204DE7AB6A9C42B3D1A0
:100BC00004220027A3180299A962EF622A636B63CB
:100BD0002368BB421FDB012301932EE748460D210A
:100BE000FFF762FE2862069B6B62AC62062032E76A
:100BF0002046FFF773FC04340646AC632846AFF387
:100C0000008000283FF426AF484632460F21FFF708
:100C100071FE07201FE70846013004EB8000FFF754
:100C20005DFC0F2102464846FFF764FE48462A460F
:100C30003946FFF75FFE07200DE707460D214846BE
:100C4000FFF732FE022F2862CDD12B46069A43F8D9
:100C50002C2F6B62C9E700BF0000000000238FE665
:100C600001238DE602238BE6F0B50446C5B00429C6
:100C70000DD8DFE801F057030C310F00012B4FEACC
:100C8000124695B266D17219102A40F29F80022056
:100C900045B0F0BD002BFAD1102AF8D82368D80649
:100CA00000F1C98022AE3046019200F077F9A06BC6
:100CB000019A0023012505FA03F1114203D00168CE
:100CC00046F8231004300133042BF4D1A0633046DE
:100CD00000F05AF90020DBE7032BD8D1150C97B2AE
:100CE000EB19102BD3D823681E0700F1B88022AE71
:100CF00030467F0000F026F906EBC5027B1EA56B8F
:100D000057B1043A294651F8040B42F8040F013B4D
:100D1000581CF8D105EB87053046A56300F0F0F8C4
:100D20000020B5E7002BB2D1A56B97B2201D01269C
:100D300006FA03F1394203F1010302D02968016088
:100D40000435102B00F10400F2D112F400503BD115
:100D5000A5639DE7052B9AD17719202F97D80F2EE1
:100D600065D92F46002D48D12A460027002AA06BBE
:100D700071DD00EBC202014644A800EBC6008C38CE
:100D800051F8045B40F8045F9142F9D1084697B1ED
:100D9000102E324644A938BF102201EBC202A2F540
:100DA000C4727900043A00EB810150F8045B42F808
:100DB000045F8142F9D1012B47D00F2EA16332D9B4
:100DC00017B102A800F094F8002061E70F2E3FF65B
:100DD0005EAF00272268D1070DD522F00101052B57
:100DE00021600193204652D022F0030240F8482BA4
:100DF00000F072F8019B002F51D02268510736D4C1
:100E0000012B3ED00F2E06D822A8019300F06CF8DB
:100E1000019B002FA8D002A8019300F06DF8019B60
:100E2000C6F11002A2E722A800F05AF8C8E7102F76
:100E3000CFD9103FCEE723F01003236004F5E8700C
:100E4000019200F0ABF8019A2CE70431A16322A8CB
:100E500000F03EF8B8E7002F9AD10146ABE723F047
:100E60000803236004F5A87000F06CF83FE7204603
:100E700022F0040240F8D02B019300F03DF8019BD2
:100E8000BEE722A8019300F027F8019BC8E741F0D4
:100E9000020140F8481B00F027F8019BABE7012B4B
:100EA00003D00F2E3FF660AFAEE722A8019300F00B
:100EB00013F8019B58E700BF00F1340191E83800B6
:100EC0009C46A6464CF8045D90E8FF0FE54600BD41
:100ED00090EC210B704700BF80EC210B704700BFE6
:100EE00090EC200B704700BF80EC200B704700BFD8
:100EF000D0EC200B704700BFC0EC200B704700BF48
:100F0000F0EC0201F0EC0211F0EC0221F0EC023105
:100F1000F0EC0241F0EC0251F0EC0261F0EC0271F5
:100F2000F0EC0281F0EC0291F0EC02A1F0EC02B1E5
:100F3000F0EC02C1F0EC02D1F0EC02E1F0EC02F1D5
:100F4000704700BFE0EC0201E0EC0211E0EC02218E
:100F5000E0EC0231E0EC0241E0EC0251E0EC026135
:100F6000E0EC0271E0EC0281E0EC0291E0EC02A125
:100F7000E0EC02B1E0EC02C1E0EC02D1E0EC02E115
:100F8000E0EC02F1704700BFB0FC0181B0FC0191C0
:100F9000B0FC01A1B0FC01B1704700BFA0FC018111
:100FA000A0FC0191A0FC01A1A0FC01B1704700BF11
:100FB000EC4600B52DE900502DE9FF1F4FF000036E
:100FC0002DE90C0001A9FFF7E9FBDDF840E012B0C4
:100FD000704700BFEC4600B52DE900502DE9FF1F1A
:100FE0004FF000032DE90C0001A9FFF711FCDDF81B
:100FF00040E012B0704700BFEC4600B52DE900504C
:101000002DE9FF1F4FF000032DE90C0001A9FFF7A8
:1010100021FCDDF840E012B0704700BFEC4600B59F
:101020002DE900502DE9FF1F4FF000032DE90C00C2
:1010300001ABFFF7E3FBDDF840E012B0704700BF03
:10104000EC4600B52DE900502DE9FF1F4FF00003DD
:101050002DE90C0001AAFFF75BFCDDF840E012B0BF
:10106000704700BF037A1BB9437A43B9B020704779
:101070005A1E036802721A020260180E7047426814
:10108000013B10B4437213680321141D01721A024C
:101090004460026010BC180E704700BF00B585B0F8
:1010A00003AA0023009219460C22FFF7E3FB0398E2
:1010B00005B05DF804FB00BFF0E700BF2DE9F04389
:1010C000064685B00D464FF000082846FFF7CAFFD8
:1010D000B028044600F0B48020F07F0313F0FF0333
:1010E00020D000F0F003802B7AD0902B35D0A02BAD
:1010F00048D0B02B5CD0C02B00F0898000F0F80302
:10110000D02B0BD100F00702013242F4002205235C
:1011100001213046FFF7A8FD0028D6D0092005B0F0
:10112000BDE8F0830DF10C0919468700CDF8009059
:101130000D223046FFF79EFBFFB2039BCDF80090D7
:10114000043760064CBFDF1BFF18002319460D2231
:1011500030460397FFF7B4FBB7E700F00D030D2B04
:10116000DCD003AF002300F00F0219460097304691
:10117000FFF780FB0023009719460D223046FFF74A
:101180009FFBA2E7C2434FF47F6302F0070243FADA
:1011900002F2010702EA03024FF0000348BF42F4E3
:1011A000804219463046FFF75FFD0028B6D18CE734
:1011B000B1284AD0B22853D0B32800F0818000F083
:1011C000FC03B42BAAD000F007020132012342F441
:1011D000002219463046FFF747FD00289ED174E7EC
:1011E0002846FFF73FFF24022043B0F5004F95D07B
:1011F00004010023A2B219463046FFF735FD00284E
:101200008CD114F4004F18BF4FF001085DE7C628D9
:1012100062D0C7286CD000F0F803C02B7BD0C82860
:1012200000F09180C9287FF479AF2846FFF71AFFB4
:10123000020300F00F0002F470220130024366E75F
:10124000B8F1000F6ED0002069E72846FFF70AFFCB
:10125000024600283FF462AF10F0F003B9D05DE71A
:1012600000230DF10C090D221946CDF800903046EF
:10127000FFF700FB2846FFF7F5FE02064FF00204D9
:101280000CD5039B00F07F00A04003442846039345
:10129000FFF7E8FE030604F10704F2D4039BCDF840
:1012A000009000F07F0000FA04F203F501740023BF
:1012B000144419460D2230460394FFF701FB04E75E
:1012C0002846FFF7CFFE010300F00F0001F4702164
:1012D000421C01230A437CE72846FFF7C3FE0103B3
:1012E00000F00F0001F47021421C03230A4370E751
:1012F0002846FFF7B7FE024600283FF40FAF10F074
:10130000F0037FF40BAF04213046FFF7ADFC00285B
:101310007FF404AFD9E600F00F020132032342F458
:10132000202256E703AC43460E2241460094304645
:10133000FFF7A0FA0094304643460F224146FFF7DC
:10134000BFFA4046EBE62846FFF78CFE00F0F002BD
:1013500000F00F031032013343EA0232D7E600BF38
:1013600010B5C36C84B05A6803208DF80C00DC798A
:101370008DF80D4012020833084601A9019202932C
:10138000FFF79CFE04B010BD08B5FFF795FE806C1A
:1013900008BD00BF08B5FFF78FFEC36CD87903EB1B
:1013A0008000083008BD00BF08B5FFF75FF800BF38
:1013B00008B5FFF7F9FF00BF844641EA000313F0C8
:1013C00003036DD1403A41D351F8043B40F8043B4C
:1013D00051F8043B40F8043B51F8043B40F8043B0F
:1013E00051F8043B40F8043B51F8043B40F8043BFF
:1013F00051F8043B40F8043B51F8043B40F8043BEF
:1014000051F8043B40F8043B51F8043B40F8043BDE
:1014100051F8043B40F8043B51F8043B40F8043BCE
:1014200051F8043B40F8043B51F8043B40F8043BBE
:1014300051F8043B40F8043B51F8043B40F8043BAE
:1014400051F8043B40F8043B403ABDD2303211D34E
:1014500051F8043B40F8043B51F8043B40F8043B8E
:1014600051F8043B40F8043B51F8043B40F8043B7E
:10147000103AEDD20C3205D351F8043B40F8043B4E
:10148000043AF9D2043208D0D2071CBF11F8013B4C
:1014900000F8013B01D30B8803806046704700BF12
:1014A000082A13D38B078DD010F003038AD0C3F121
:1014B0000403D21ADB071CBF11F8013B00F8013B03
:1014C00080D331F8023B20F8023B7BE7043AD9D3C2
:1014D000013A11F8013B00F8013BF9D20B78037097
:1014E0004B7843708B78837060467047024B13B122
:1014F000024800F005B87047000000000D15000814
:10150000002301461A46184600F014B838B5074DB6
:10151000074C2C1BA41005D0013C55F8043D9847FE
:10152000002CF9D1BDE8384000F05CB84C04002034
:10153000480400202DE9F047254C2568D5F848419E
:101540000646884692469946C4B360681F2817DC51
:10155000431C76B104EB80050122C5F888A0D4F8BD
:10156000881182401143022EC4F88811C5F80891F1
:101570001ED00230636044F820800020BDE8F08770
:10158000144B03B34FF4C870AFF300800446D0B1DE
:10159000D5F84831002780E88800C5F8484138462A
:1015A0000123C4F88871C4F88C71002EE1D0D1E712
:1015B000D4F88C110A43C4F88C21DAE705F5A67437
:1015C000C5F84841C1E74FF0FF30BDE8F08700BFE4
:1015D000F415000800000000F8B500BFF8BC08BC16
:1015E0009E467047F8B500BFF8BC08BC9E467047E1
:0815F000430000001800002078
:1015F80008B10181B0B000840000000008B1018189
:10160800B0B000840000000008B10181B0B00084CF
:0416180000000000CE
:10161C00C8EBFF7FB0A80180F4EBFF7F0100000056
:10162C0050ECFF7FC8FFFF7F7CECFF7F01000000C8
:10163C003CEFFF7FB0A90280D4EFFF7FB0B0A88051
:10164C0024F0FF7F0100000030F0FF7FB0B0AA80D3
:10165C0068F0FF7FAE71B28034F1FF7F01000000B3
:10166C0030F1FF7FAB3F388088F1FF7F0100000035
:10167C0094F1FF7FB0B0AA80D0F1FF7F0100000091
:10168C0084F2FF7FAB0EB280ECF2FF7FB0AF0A802A
:10169C00C0F5FF7F01000000C4F5FF7FAB3F048065
:1016AC000CF8FF7F01000000E8F9FF7F0084048044
:1016BC00FCF9FF7F01000000F8F9FF7FB0AD04805A
:1016CC0094FCFF7FB0A80380B4FCFF7F2CFFFF7F4E
:1016DC00B8FCFF7F30FFFF7FC4FCFF7F01000000E0
:1016EC0000000000000000000102030406070809C6
:1016FC00007A030A00000000000000000403002030
:10170C006C030020D4030020000000000000000047
:10171C0000000000000000000000000000000000BD
:10172C00000000000000000000000000F0150008A0
:10173C00000000000000000000000000000000009D
:10174C00000000000000000000000000000000008D
:10175C00000000000000000000000000000000007D
:10176C00000000000000000000000000000000006D
:10177C00000000000000000000000000000000005D
:10178C00000000000000000000000000000000004D
:10179C00000000000000000000000000000000003D
:1017AC0001000000000000000E33CDAB34126DE6DA
:1017BC00ECDE05000B000000000000000000000043
:1017CC00000000000000000000000000000000000D
:1017DC0000000000000000000000000000000000FD
:1017EC0000000000000000000000000000000000ED
:1017FC0000000000000000000000000000000000DD
:101B2C00ED140008AD010008890100080000000058
:0400000508000000EF
:00000001FF
